{
  "contractName": "Example",
  "abi": [
    {
      "inputs": [],
      "stateMutability": "nonpayable",
      "type": "constructor"
    },
    {
      "inputs": [
        {
          "internalType": "address",
          "name": "user",
          "type": "address"
        }
      ],
      "name": "isAdministrator",
      "outputs": [
        {
          "internalType": "bool",
          "name": "",
          "type": "bool"
        }
      ],
      "stateMutability": "view",
      "type": "function"
    }
  ],
  "bytecode": "0x608060405234801561001057600080fd5b50600080546001600160a01b0319163317905560c4806100316000396000f3fe6080604052348015600f57600080fd5b506004361060285760003560e01c80630a2eb30114602d575b600080fd5b604c60383660046060565b6000546001600160a01b0391821691161490565b604051901515815260200160405180910390f35b600060208284031215607157600080fd5b81356001600160a01b0381168114608757600080fd5b939250505056fea26469706673582212203fa754120e9c7ca10b8b834badcc38518a470e89775537cc1e642ae9295e92db64736f6c634300080d0033",
  "immutableReferences": {},
  "source": "// SPDX-License-Identifier: MIT\npragma solidity ^0.8.0;\n\ncontract Example {\n    address private _administrator;\n\n    constructor() {\n        // Make the deployer of the contract the administrator\n        _administrator = msg.sender;\n    }\n\n    function isAdministrator(address user) public view returns (bool) {\n        return user == _administrator;\n    }\n}\n",
  "sourcePath": "P:\\Projects\\solidity-project-template\\contracts\\Example.sol",
  "compiler": {
    "name": "solc",
    "version": "0.8.13+commit.abaa5c0e.Emscripten.clang"
  },
  "schemaVersion": "3.4.7",
  "updatedAt": "2022-05-26T13:35:26.148Z",
  "devdoc": {
    "kind": "dev",
    "methods": {},
    "version": 1
  },
  "userdoc": {
    "kind": "user",
    "methods": {},
    "version": 1
  }
}